:100000000C94A2020C94BF020C94BF020C94BF0289
:100010000C94BF020C94BF020C94BF020C94BF025C
:100020000C94BF020C94BF020C94A5230C94792469
:100030000C94D21E0C94BF020C94BF020C94BF020D
:100040000C94BF020C94BF020C94BF020C94BF022C
:100050000C94BF020C94591F0C94BF020C94BF0265
:100060000C94BF020C94BF020C94BF020C94BF020C
:100070000C94BF020C94BF020C94BF020C94BF02FC
:100080000C94BF020C94BF020C94BF020C94BF02EC
:100090000C94BF020C94BF020C94BF020C94BF02DC
:1000A0000C94BF020C94BF020C94BF0214001A00FF
:1000B0000800150017001C0018000C0012001300A7
:1000C0002A0004281624072209210A000B000D31FA
:1000D0000E320F2433386352E1001D001B0006006E
:1000E00019000500110010003400380028002B0012
:1000F0002900E000E20036002C412C4200003700CD
:10010000E30000003B003C003D003E003F0040009B
:10011000410042004300440045001E001F00200033
:1001200021002200230024002500260027000100D2
:100130000100460001000100010001000100010072
:1001400001000100010001003A000100007C0100F3
:100150000100E30000000100010000002F0030005A
:100160002F023002310231002E022D022D002E000E
:100170004C001E021F02200221022202230224023E
:1001800025022602270201000100407E207801009E
:10019000010001000100267828780100010001001B
:1001A0003500010021782378010001000000257846
:1001B000277800000100010001000100010001009A
:1001C00001000100520001000100010001000100D6
:1001D0000100010001000100500051004F0001002A
:1001E0000100010001000100010001000100010007
:1001F00001000100010001000100010001000100F7
:100200002C002C0000000100010000001E0F050062
:10021000047F3F1F643214643214783C1E1E140A9B
:10022000052223252628292A2C2D2F303233353636
:10023000383A3B3D3E4042434547494A4C4E505177
:10024000535557595A5C5E6062646668696B6D6F9E
:1002500071737577797B7D7F81838587898A8C8EA1
:1002600090929496989A9C9E9FA1A3A5A7A8AAACA9
:10027000AEAFB1B3B4B6B8B9BBBCBEBFC1C2C3C5E3
:10028000C6C7C9CACBCCCDCED0D1D2D2D3D4D5D685
:10029000D7D7D8D9D9DADADBDBDBDCDCDCDCDCDDB8
:1002A000DDDDDDDCDCDCDCDCDBDBDBDADAD9D9D89C
:1002B000D7D7D6D5D4D3D2D2D1D0CECDCCCBCAC934
:1002C000C7C6C5C3C2C1BFBEBCBBB9B8B6B4B3B163
:1002D000AFAEACAAA8A7A5A3A19F9E9C9A989694FE
:1002E00092908E8C8A89878583817F7D7B797775D3
:1002F00073716F6D6B6968666462605E5C5A5957B2
:10030000555351504E4C4A4947454342403E3D3B70
:100310003A3836353332302F2D2C2A2928262523FA
:1003200022FFAA7F554000010101010101010101E5
:100330000202020202020202020303030303030396
:100340000304040404040404050505050506060663
:100350000606070707070708080808090909090A20
:100360000A0A0B0B0B0C0C0C0D0D0D0E0E0E0F0FC5
:100370000F10101111111212131314141515161653
:100380001717181819191A1A1B1B1C1D1D1E1E1FC2
:100390002020212222232424252626272829292A11
:1003A0002B2C2D2D2E2F3031323233343536373839
:1003B000393A3B3C3D3E3F40414243444546474835
:1003C000494A4C4D4E4F50515354555658595A5B0B
:1003D0005D5E5F616264656668696B6C6D6F7072AB
:1003E000737577787A7B7D7E8082838587888A8C17
:1003F0008E8F91939596989A9C9EA0A2A3A5A7A94B
:10040000ABADAFB1B3B5B7BABCBEC0C2C4C6C9CB41
:10041000CDCFD1D4D6D8DBDDDFE2E4E7E9EBEEF0F7
:10042000F3F5F8FAFDFF0E03540061006E0075004D
:100430006B00690000000A03530065007400680047
:1004400000000403090409023B00020100A0FA09AC
:1004500004000001030101000921110100012244EF
:1004600000070581030800010904010001030000E1
:1004700000092111010001226D00070582032000FF
:10048000011201000200000008EDFE646401000199
:1004900002000105010980A101850319012AB700A5
:1004A000150126B700950175108100C0050C0901E2
:1004B000A101850419012AA002150126A0029501B7
:1004C00075108100C005010906A1018506050719FF
:1004D000E029E71500250195087501810205071936
:1004E0000029EF1500250195F07501810205081915
:1004F000012905950575019102950175039101C0CA
:1005000005010906A101050719E029E715002501E4
:10051000950875018102950175088101050719008B
:1005200029FF150026FF00950675088100050819AA
:1005300001290515002501950575019102950175A3
:10054000039101C011241FBECFEFDAE0DEBFCDBFA3
:1005500011E0A0E0B1E0E4EDF0E502C005900D92FD
:10056000AE3DB107D9F723E0AEEDB1E001C01D9279
:10057000A532B207E1F70E942E130C941E280C94AA
:1005800000000E943D0E6093E7027093E8028093A2
:10059000E9029093EA0260FF0AC00E94291A81E0F2
:1005A0000E94E4194FEF6AE080E00E948D160895E2
:1005B000CF93DF93EC018091E70280FF0BC0CE0167
:1005C0000E949704813071F0882341F0823099F0C5
:1005D0008330A9F0CE01DF91CF9108954FEF6AE00B
:1005E00080E003C04FEF68EC82E80E948D1681E046
:1005F0000E94E419EFCF4FEF68EC8AEAF6CF4FEF95
:1006000064EBEECF893228E7920768F48532E8E799
:100610009E0778F58132F8E79F0759F183329847B2
:1006200041F181E0089580349E47D9F7FB0185812F
:10063000811102C080E008959091E702892F8E7F9A
:1006400090FF81608093E7026091E7027091E80279
:100650008091E9029091EA020E94420E8091E702A5
:1006600080FFE8CF8091FE019091FF010E94DB089E
:10067000E1CF8091E70280FFD4CFFB01858191E03B
:10068000892708951092E7021092E8021092E90279
:100690001092EA0280E081608093E7026091E702B5
:1006A0007091E8028091E9029091EA020E94420E64
:1006B0000E94D0194FEF6AE080E00E94891681E025
:1006C0000E94CC1908958430B8F46430A8F44B30FB
:1006D00098F450E09BE0699F400D511D1124FA01F0
:1006E0009CE2899FE00DF11D1124EE0FFF1FE455E0
:1006F000FF4F85919491089581E090E008950E94C4
:100700006303089581E008950E948203089581E0C3
:1007100008950E940203089508950E948C0308958D
:10072000A6E0B0E0E6E9F3E00C94CA2649835A83D8
:100730009E833091E50189819A8131111AC03E81F1
:10074000332399F0222389F00E94B909182F682FCA
:1007500089819A810E94950969817A81812F0E94FD
:10076000CA102696E3E00C94E6260E94A709182FEB
:10077000F3CF0E94B90969817A81F1CFFC01262F5C
:100780004081518162817381848195810E949003AF
:100790000895CF93DF93EC0161E00E94BE03BE0198
:1007A0000E948403DF91CF910895CF93DF93EC01F2
:1007B00060E00E94BE03BE010E948D03DF91CF91D5
:1007C000089521E030E0A90102C0440F551F8A9529
:1007D000E2F7CA010E94BA080895CF93C82F81E0BA
:1007E00090E00C2E02C0880F991F0A94E2F70E9435
:1007F000250E8C2F0E94E103CF91089581E008958A
:100800000E94FE030895CF93C82F0E946D088C2F7D
:100810000E9400042FEF84E39CE021508040904030
:10082000E1F700C00000CF91089581E00E94030429
:100830000E947D1F089580E00E9403040E948E1F85
:1008400008950F931F93CF93DF938C0161E00E9473
:10085000BE03EC01F801858181110E94DC1AB80108
:10086000CE010E948903811106C080E0DF91CF9103
:100870001F910F910895B801CE010E94881C882312
:10088000A1F3B801CE010E94481B882371F3B8017F
:10089000CE010E941E1B882341F3B801CE010E94A5
:1008A0004813882311F3B801CE010E94CE1188238A
:1008B000E1F2F8018581882361F0C330FCE7DF07AE
:1008C000E9F058F4C115ECE7DE07A9F0C130DC47C8
:1008D000B9F0C8010E948703C9CFCB358CE7D80790
:1008E000A9F0CC35ECE7DE0771F0CA35DC4789F7B3
:1008F0000E94000EEECF0E941504B7CF0E94080E92
:100900000E941B04B2CF0E94F60DE3CF0E94040E9A
:10091000E0CF0E94AE1E0E94D1040E943F190895AC
:100920000E94D5040E94331A0E94B31E0895292FF5
:10093000332740E02115310511F0C90148E09C0141
:1009400064E0369527956A95E1F72115310511F098
:100950004C5FC9019C013695279536952795211541
:10096000310511F04E5FC90196958795892B09F0E5
:100970004F5F842F089581E008950895CF93DF930A
:10098000D82F0E94BB04C82F882319F08D2F0E94F6
:10099000BD048C2FDF91CF91089508950E94BE046D
:1009A000089580E00E94CE0408950E94D11C0E9408
:1009B000CE040895CF930E94D11CC82F8091E001EE
:1009C0008C1779F0C093E0010E943E1F6093E10113
:1009D0007093E2018093E3019093E4018C2F0E94D5
:1009E000CE04CF910895ADE0B0E0E9EFF4E00C94CF
:1009F000CB26488759876A877B878C879D8791118B
:100A00000E94060D1F8286E0FE013896DE011196D7
:100A100001900D928A95E1F78D8181110DC0298198
:100A20003A814B815C816D817E818F810E94500C67
:100A30002D96E2E00C94E726CE0101960E94C903B0
:100A40008111EDCFF5CFFC012481213021F480818B
:100A500091810E94EB090895CF93C82F8823C9F094
:100A60008238C9F40E94DE1C81FD13C089E30E9414
:100A7000F21D0E949A0D2FEF87EE93E021508040E7
:100A80009040E1F700C0000089E30E940C1E0E9424
:100A90009A0DCF9108958338A1F40E94DE1C80FD49
:100AA000F8CF83E50E94F21D0E949A0D2FEF81EE90
:100AB00094E0215080409040E1F700C0000083E5C1
:100AC000E4CF8438A1F40E94DE1C82FDE2CF87E4EB
:100AD0000E94F21D0E949A0D2FEF81EE94E02150AA
:100AE00080409040E1F700C0000087E4CECF8CEF5B
:100AF0008C0F813A70F48C2F0E94661D882329F098
:100B00008C2F0E940C1E0E949A0D8C2F0E94F21DA9
:100B1000BECF80E28C0F883048F4C77081E001C0FE
:100B2000880FCA95EAF70E94E90CB1CFEBE5EC0F0C
:100B3000E33040F4F0E0E15AFE4F808190E00E9403
:100B4000FA1CA7CFC85ACB3108F0A3CFEC2FF0E0A6
:100B5000EE0FFF1FE75DFE4F808191810E941F1DF8
:100B600098CF882309F44DC0823879F40E94DE1CA6
:100B700081FF47C089E30E94F21D0E949A0D89E31C
:100B80000E940C1E0E949A0D0895833859F40E9409
:100B9000DE1C80FF36C083E50E94F21D0E949A0D84
:100BA00083E5EECF843859F40E94DE1C82FF29C011
:100BB00087E40E94F21D0E949A0D87E4E1CF9CEF2A
:100BC000980F913AE8F290E2980F983050F48770BD
:100BD00091E001C0990F8A95EAF7892F0E94EF0CE6
:100BE000D1CF9BE5980F933028F490E080E00E94ED
:100BF000FA1C0895885A8B3120F490E080E00E941E
:100C00001F1D08951F93CF93DF93182FEB010E94B0
:100C10002C05209739F4812F0E94B105DF91CF91E7
:100C20001F9108958FE99FE00197F1F700C0000040
:100C30002197EFCF70E060E0893311F460E570E058
:100C40000E9402060895882321F00E94E90C0E9468
:100C50009A0D0895882321F00E94EF0C0E949A0DAE
:100C60000895B0E0A0E0E7E3F6E00C94C4266C0140
:100C7000D62FC72FFC011581068102950F700E94A7
:100C8000DF0CE82E8823F9F0E12E1123E1F08C2F00
:100C9000807F803461F080E28D0F883008F18C2FE6
:100CA000807E803221F4D230D8F00023C9F08091C8
:100CB000EC0282FF15C082E00E94CA0D0E94DF0C88
:100CC00091E0E82EE926BC2EB2949FE0B922FBE029
:100CD000FB15B8F1EB2DF0E0E05EF74D0C948426A7
:100CE000E12CF1CF0C2F0F70C07F11F00295007F27
:100CF000112399F0002359F080E28D0F883010F015
:100D0000D11107C0802F0E94E90C0E949A0D8D2FEF
:100D10005AC0802F0E94F90CF8CF8D2F0E94B10588
:100D2000002379F080E28D0F883010F0D11104C0DB
:100D3000802F0E94EF0C03C0802F0E94FF0C0E94A6
:100D40009A0DEB2DE850FF0B349720F40E94D11C34
:100D50000E94CE04EE2089F00E94DB0C80FD0DC0C5
:100D6000F60115820E94D50C0E94F308C6010E946C
:100D700038080E94D50C0E940309CDB7DEB7E9E020
:100D80000C94E0262C2F2F70F22EC07FC03219F069
:100D9000F29480EFF822DD2341F0D130D1F111231C
:100DA00009F444C00023F1F0B2CF8091EC0282FD3F
:100DB00015C0112359F0FF2029F08F2D0E94E90C56
:100DC0000E949A0D80E00E942C05BBCF80E00E941B
:100DD000B105FF2009F4B5CF8F2DABCF112369F0FA
:100DE000011104C08F2D0E942306ABCF013009F002
:100DF000A8CF8F2D0E941D0DA4CF0111A2CF8F2D42
:100E00000E942A068F2D0E94290D8F2D0E940D0D04
:100E100098CF112321F0063008F093CFE3CF0530AF
:100E200008F08FCF8F2D0E942A068BCF0023D1F39D
:100E3000D93349F43FEF87EE93E031508040904042
:100E4000E1F700C000008D2F0E94B1057ACF8C2FF2
:100E500086958695837069F0813009F072CF8D2F69
:100E60009C2F9370111102C080E090E00E941F1D22
:100E700068CF8D2F9C2F9370111102C080E090E0FD
:100E80000E94FA1C5ECF8C2F8370A1F5111159CFEF
:100E90004D2F429546954770440F440F2D2F2F70CC
:100EA00030E0042E02C0220F331F0A94E2F790E0D4
:100EB00080E0D4FF09C08FE090E002C0880F991F46
:100EC0004A95E2F780959095C695C695C370822B9A
:100ED000932BC23049F058F4C13019F00E94C60873
:100EE00030CF0E94BD082DCF0E94CF082ACF0E948C
:100EF000BA0827CF8695112311F08C2F8170882393
:100F000009F41FCF4D2F429546954770440F440F6B
:100F10002D2F2F7030E0042E02C0220F331F0A94B1
:100F2000E2F790E080E0D4FF09C08FE090E002C0DB
:100F3000880F991F4A95E2F780959095C695C695BA
:100F4000C370822B932BC23049F058F4C13019F092
:100F50000E942E09F6CE0E942509F3CE0E94370981
:100F6000F0CE0E94DB08EDCECF70112329F08C2F3C
:100F70000E94F3088D2F37CF8D2F0E942A068C2FC9
:100F80000E940309DECED23F41F160F4D03FB9F0B8
:100F9000D13F81F0112309F443C00111B8CE8C2F49
:100FA0008F711FC0D33F01F1D43FA1F78091EC02B4
:100FB00082FD24C08C2F8F71112311F312C01123D5
:100FC00041F0053008F0BDCE8C2F8F710E941509BD
:100FD000B8CE063008F0B5CEF7CF8C2F8F71111137
:100FE000CFCF0E94F308ADCE112329F08C2F8F7143
:100FF0000E94E708A6CE0E94E208A3CE112331F09A
:1010000063E08C2F8F710E94AC0D9BCE81E00E941B
:10101000CA0D023008F495CE82E00E94CA0D91CE2E
:10102000002359F0D93309F00ECFEFEFF7EE23E0AC
:10103000E150F0402040E1F704CF8C2F8F71A0CF1A
:101040000F931F93CF93DF93EC01688179818D819A
:101050000E94F6098C010E9440090E94B908B8015B
:10106000CE010E943106DF91CF911F910F9108951B
:10107000CF93DF93EC018C81882399F0CE010E94FD
:101080002104811111C00E94DF0C882351F08D8151
:10109000882339F08091EC0282FF03C082E00E9435
:1010A000CA0DDF91CF910895CE010E942008CE0194
:1010B0000E94D503F6CF90E080E00E94FA1C90E0F9
:1010C00080E00E941F1D0E94060D0E949A0D089547
:1010D0000E94261E0E945B0808950E94F60C0E9442
:1010E0006808089592959F70963091F058F4925F39
:1010F0009F70923058F4803F19F030F4883E30F4FD
:1011000081E008959A5FF4CF843FD1F380E00895A1
:10111000883EB0F3813FD1F7F3CFFC012481222335
:1011200039F0808191810E94EB090E947208089534
:1011300080E00895A6E0B0E0E0EAF8E00C94CB2669
:101140002696E2E00C94E726A7E0B0E0EAEAF8E0B1
:101150000C94CB262796E2E00C94E72608950E9493
:10116000AE0808950E94AF08909301028093000298
:10117000089508950E94B2080895209100023091C8
:101180000102822B932B0E94B20808952091000245
:1011900030910102822393230E94B2080895209186
:1011A000000230910102822793270E94B20808951D
:1011B0000E94D80208950E94D8089093FF0180935E
:1011C000FE01089590E080E00E94DB08089521E090
:1011D00030E0A90102C0440F551F8A95E2F7CA0109
:1011E0000E94DB08089521E030E002C0220F331F87
:1011F0008A95E2F78091FE019091FF01822B932B5B
:101200000E94DB08089521E030E002C0220F331F66
:101210008A95E2F7209530958091FE019091FF012B
:10122000822393230E94DB08089521E030E002C06E
:10123000220F331F8A95E2F78091FE019091FF0102
:10124000822793270E94DB0808952091FE013091A8
:10125000FF01822B932B0E94DB0808952091FE0151
:101260003091FF01822393230E94DB08089520918F
:10127000FE013091FF01822793270E94DB08089529
:101280000895262F277091E001C0990F2A95EAF75B
:1012900023E0769567952A95E1F7660F771F660F2D
:1012A000771FFA01E60FF71F50E040E0682F70E06B
:1012B0008191DF0111979B01042E02C0369527957D
:1012C0000A94E2F7217021952827292328272C93B7
:1012D0004F5F5F4F4430510559F70895A82FA7700D
:1012E00023E0969587952A95E1F7880F991F880F37
:1012F000991FFB01E80FF91F50E040E080E02191C9
:1013000030E00A2E02C0369527950A94E2F7217044
:101310003327042E01C0220F0A94EAF7822B4F5F75
:101320005F4F4430510559F70895262F943070F4DB
:101330008B3060F4682F70E08BE0989F600D711D1A
:10134000112446EE51E0822F0E9441090895292F71
:10135000943068F48B3058F490E066EE71E03BE036
:10136000239F800D911D11240E946E09089580E035
:101370000895B0E0A0E0EFEBF9E00C94C4267C0106
:101380000091FE011091FF018091000290910102F5
:10139000082B192BCFE0D0E0CC24C394D12CBC2E49
:1013A000C6010C2E02C0880F991F0A94E2F7802311
:1013B0009123892B49F4219790F7B12C8B2DCDB730
:1013C000DEB7E9E00C94E026B7018C2F0E94D6101E
:1013D000019789F3F3CFCF93DF93EC010E94B90912
:1013E000BE010E94D610DF91CF9108951F93CF9335
:1013F000DF93EB019091E501992339F0CB010E9435
:10140000EB09DF91CF911F910895882369F0CB01FB
:101410000E94B909182F682FCE010E949509BE01BC
:10142000812F0E94D610EDCFCB010E94A709182F63
:10143000F6CF1F93CF93DF93C091020217E0809104
:1014400003028C1304C0DF91CF911F910895D0E067
:101450001C9FF0011D9FF00D1124EC5FFD4F2081BA
:101460003181428153816481758186810E94A40803
:101470002196C770E4CF20913C0230913D0240910B
:101480003E0250913F026091400270914102809172
:1014900042020E94A4080895CF93DF9380914202F4
:1014A000807F09F04DC080914102882309F448C033
:1014B000E091020250910302C0913D02D0913C02A2
:1014C00060913E0270913F0247E05E17C9F18E2F96
:1014D00090E0E49FF0011124EC5FFD4F2481222372
:1014E00091F1489FF001499FF00D1124DF01AC5F9D
:1014F000BD4F11962C9111972C1325C02C912D13B3
:1015000022C015962C91159721111DC012962D9170
:101510003C91261B370B26393105A8F480914202F5
:101520008F70806180934202E65FFD4F80818F70F3
:10153000806180838CE392E00E9438080E94190A3F
:10154000DF91CF910895FC013196E770BECF482F0F
:10155000209102029091030257E0291302C080E01B
:10156000089530E0529FF001539FF00D1124EC5F7D
:10157000FD4F8181681306C08081481303C08581B7
:101580008111EECF2F5F3F4F2770E7CFA4E1B0E08E
:10159000ECECFAE00C94C1268C0186E0F801DE0147
:1015A0001F9601900D928A95E1F7F8018481E580FC
:1015B0009CE3A92E92E0B92E9091400291111FC098
:1015C0008823D1F0EE20A9F0C8010E948D08F82EE2
:1015D000882379F087E0F801D50101900D928A9572
:1015E000E1F7C5010E9423050E944C0A0E943B0AB4
:1015F0005FC0C8010E943808FF24F39459C0C0801E
:10160000D18082809380F090410220913E023091FF
:101610003F02A401421B530BFF2009F4F9C04639D5
:10162000510508F0A7C0882309F442C090913D02FB
:1016300080914202282F207F09F05CC09D1116C0C6
:1016400090913C02C91212C0E1104EC08F708061AF
:10165000809342020E943B0A8CE392E00E94380889
:1016600080914202F8018683F12C22C0E1103CC037
:101670006D2D8C2D0E94A70A6D2D8C2D0E94A70A1E
:10168000E82E8111F1CFCF86D88A8F8598890E9464
:10169000EB09292F22952F70243078F49F70223087
:1016A000A8F09923B9F0F8019681907F99F4FE2C67
:1016B0008F2D6496ECE00C94DD262A5F2F7022308B
:1016C00068F0C8010E943808EF2CF1CF992311F07F
:1016D000882369F3805E883050F3F3CF803F38F37E
:1016E000815F833070F7E3CF809142028160809305
:1016F0004202BACF9D1113C090913C02C9120FC093
:10170000E1100DC08683C8010E94380887E0F80107
:10171000ACE3B2E001900D928A95E1F767CFC80182
:101720000E948D08882309F464CFEE2009F461CF6C
:1017300080914202803288F020913C0230913D023B
:10174000398728879B868A86909140029C871D86D0
:101750008E87CE0108960E94380887E0F801ACE336
:10176000B2E001900D928A95E1F70E944C0A0E9426
:101770003B0A42CF90914202292F207FA1F4682D8D
:101780009A8A898AA6017A899E2D0E949A088CE3FA
:1017900092E00E94380887E0F50111928A95E9F7F6
:1017A0000E943B0A61CF882309F482CF80913D02D9
:1017B0008D1110C080913C02C8120CC0E1100AC00B
:1017C0009683C8010E94380887E0F50111928A9536
:1017D000E9F76ECFC8010E948D08882309F409CF6C
:1017E000EE2009F406CF80914202803208F4B5CF92
:1017F00020913C0230913D023A8329839C828B8266
:10180000909140029D831E828F83CE010196A3CFCB
:1018100046395105B8F5882309F4EECEFE2CEE20AA
:1018200009F4E7CE80913D028D111EC080913C02EB
:10183000C8121AC08091420280FD0DC0982F907F7F
:1018400051F08683903F09F45ECF982F907F905F90
:101850008F70892B57CF87E0F801ACE3B2E001909D
:101860000D928A95E1F724CFC8010E948D0881115D
:1018700074CF80914202816080934202C8010E942D
:10188000380816CF682D9A8A898AA6017A899E2DF2
:101890000E949A0887E0F50111928A95E9F7A6CE91
:1018A000AEE0B0E0E6E5FCE00C94CA262887398774
:1018B0004A875B876C877D878E87CE0108960E945A
:1018C000C60A8823B1F06C85662341F028853985E6
:1018D0004A855B857D858E850E94A40817E08091EE
:1018E00002029091030289133DC02E96E3E00C940E
:1018F000E62687E0FE013896DE01119601900D92F2
:101900008A95E1F78C85882349F32091030230E022
:10191000C90101968770992740910202481719065C
:1019200099F097E0929FD001939FB00D1124AC5F86
:10193000BD4FFE01319601900D929A95E1F780938B
:1019400003020E94190ACACF0E946D081092030276
:101950001092020287E0ECE3F2E0DF011D928A952B
:10196000E9F7BCCF819FC00111248C5F9D4F0E947D
:10197000C60A882309F4B9CFE09102021E9FF00144
:101980001124EC5FFD4F20813181428153816481BC
:10199000758186810E94A4088091020290E00196E0
:1019A00087709927809302029ACF80916B02869567
:1019B00086958695089580916B0287700895909121
:1019C0006B02977081E009F480E00895809197029E
:1019D000089590919702892B80939702089580959E
:1019E00090919702982390939702089510929702EE
:1019F000089590919602892B809396020895809580
:101A000090919602982390939602089510929602D0
:101A1000089508950E94090D089590916C02292F50
:101A2000282331F08095892380936C020E940A0D4F
:101A3000089508950E94190D089590916D02292F1F
:101A40002823281729F0982B90936D020E941A0DD5
:101A5000089590916D02292F282331F080958923D4
:101A600080936D020E941A0D089580916D02882363
:101A700029F010926D0280E00E941A0D0895CF9314
:101A8000C091970280919602C82B80916D028823A5
:101A900031F0C82B0E94441D81110E94350D8C2FFE
:101AA000CF910895CF93DF93C0910601D0910701A4
:101AB0000E943F0D8883C0910601D091070148E044
:101AC00050E063E672E0CE010E949127892B59F025
:101AD00088E0FE01A3E6B2E001900D928A95E1F75D
:101AE000CE010E94E11CDF91CF910895CF93DF9347
:101AF000C0910401D09105010E943F0D8983C091DE
:101B00000401D091050140E250E063E472E0CE01AF
:101B10000E949127892B59F080E2FE01A3E4B2E0F4
:101B200001900D928A95E1F7CE010E94EC1CDF91A5
:101B3000CF9108950E94891E813039F48091EB0283
:101B400087FF03C00E94760D08950E94520D0895EC
:101B500008950E94A80D08959091EC0292FF11C083
:101B600098E0899F90011124622B60936B020E9480
:101B7000F30880916B028695869586950E94A90D43
:101B800008950E94F308089510926B0280E00E946D
:101B9000A90D089590916B028095892380936B0223
:101BA000282F277069F4891759F09091EC0292FF61
:101BB00007C08695869586950E9403090E94C40DEC
:101BC00008959091EC0292FB222720F9281769F0E2
:101BD00080FB92F99093EC028091EB029091EC02E1
:101BE0000E94300E82E00E94CA0D08958091EC029E
:101BF00082FB882780F991E089270E94E10D0895F2
:101C000081E00E94E10D089580E00E94E10D0895B9
:101C10006FEF7FEF90E080E00E94E927089590E069
:101C200080E00E94B52721E0853E9E4F09F020E02C
:101C3000822F089582E090E00E94A727089583E014
:101C400090E00E94A72790E00895682F83E090E03D
:101C50000E94CB27089584E090E00E94B527089564
:101C6000BC0184E090E00E94E9270895AB01BC012B
:101C70008FE090E00E94DD27089583E190E00E94CC
:101C8000AF270895AB01BC0183E190E00E94DD27FE
:101C9000089560E070E0CB010E94360E0E9442037E
:101CA0000895A8E0B0E0E7E5FEE00C94CB2665EEF1
:101CB0007EEF90E080E00E94E92760E082E090E023
:101CC0000E94CB2781E090E0909301028093000274
:101CD0000E94250E60E074E184E090E00E94E92714
:101CE00060E086E090E00E94CB2760E087E090E033
:101CF0000E94CB2740E050E0BA0188E090E00E94CB
:101D0000DD2760E083E290E00E94CB2760E08CE07A
:101D100090E00E94CB2760E08DE090E00E94CB270E
:101D200019821A821B821C821D821E821F821886C3
:101D300048E050E067E170E0CE0101960E94BB27C9
:101D400040E050E0BA018FE190E00E94DD270E9460
:101D5000490E2896E2E00C94E7260E94510E089561
:101D6000682F8EE090E00E94CB270895A6E0B0E0B7
:101D7000ECEBFEE00C94C9260E94321F8C0180918E
:101D80009802909199028017910781F019821A8226
:101D90000E94321F682F49815A81792F80E090E09C
:101DA0000E94F30410939902009398022696E4E0AF
:101DB0000C94E5260E943E1F6093A6027093A70232
:101DC0008093A8029093A9026093A2027093A30249
:101DD0008093A4029093A5020895089508950E9407
:101DE000ED0E08950E94C10208958CEC91E10E94CD
:101DF00043130E94EE0E0E94EF0E089581E00895B5
:101E00000E94FE0E08950E94FE0E08950895089502
:101E10000E94060F0E94070F08950E940F0E811165
:101E200002C00E94AD0E0E941A0E8093AA020E9468
:101E30002B0E9093EC028093EB020E941F0E0E94E7
:101E4000BA088091FE019091FF010E94D808089580
:101E50000E94291F0E949E120E940D0F0E94CD0415
:101E60000E94E8190E94F20E0895A6E0B0E0EBE3AC
:101E7000FFE00C94BF260E94000F81110AC00E944F
:101E8000B60E0E94DD1A0E94DA042696EEE00C944B
:101E9000DB260E94B4122AE9822E22E0922E6401EF
:101EA00010E0F601E190F1906F01812F0E94E8119E
:101EB0001F5F143009F44BC0E816F90691F38091C6
:101EC000AA0281FD0E94F1110E94030F782E10E0FA
:101ED00066246394812F0E94E8117C01F401A19093
:101EE000B1904F018A159B0561F1A826BF2400E03F
:101EF000CC24C394D12CC5018C219D21892BC1F008
:101F00007720B1F009831A830E94321F9C838B8350
:101F10006D8221E0C7018C219D21892B09F420E0ED
:101F200049815A816B817C818D81922F0E94F304BB
:101F30000F5FCC0CDD1C0B30F1F6F4013297F1820F
:101F4000E0821F5F143031F60E94DA0E9ACFE81655
:101F5000F90609F0B4CF93CF1F93CF93DF930E947C
:101F6000DB10EC01C11580E5D807F0F5C11580E460
:101F7000D80708F09CC0C03ED10520F5CD3CD10566
:101F800008F082C0C83AD10578F4C53AD10508F006
:101F900073C0C130D10519F1209709F1C430D105C2
:101FA000F0F4D0E0C0E01BC0C33CD105D0F7C85A64
:101FB000D0E0CC0FDD1FCE59DE4F0990D881C02D67
:101FC000D4640DC0C11580E2D80708F0D1C0C11596
:101FD00081E0D80708F05AC0C83ED10510F7CE01FD
:101FE000DF91CF911F910895C03682E5D80718F58B
:101FF000C03482E5D80708F06BC0C03282E5D8074C
:1020000008F05FC0C11582E5D80708F497C02C2FEF
:102010002695269580E2289F900111248C2F8370AD
:10202000C1E0D0E002C0CC0FDD1F8A95E2F7C22BE1
:10203000D32BDD68D4CFC03A82E5D80760F4C0382E
:1020400082E5D80708F459C0CF71D0E0DC2FCC2747
:10205000C46FD06AC4CFC03C82E5D80708F462C020
:10206000C03E82E5D80708F09CCFDC2FCC27CC27D8
:10207000DF71C06FD06AB3CFC55AD0E0C856DE4F0B
:10208000C881D0E0D064ABCFD065A9CF8D2F0E949E
:102090007D11182FCE0199270E94DB10C12FD0E0AF
:1020A000DC2FCC27CC27DF71C82BD92B98CFCE01C2
:1020B00099270E94DB10CC27DF70C82BD92BD06A60
:1020C0008ECFCF71D0E0DC2FCC27C16FD06A87CF05
:1020D0002C2F26952695277080E2289F90011124A9
:1020E0008C2F8370C1E0D0E002C0CC0FDD1F8A9539
:1020F000E2F7C22BD32BDC6872CF2C2F26952695C6
:10210000277080E2289F900111248C2F8370C1E0FA
:10211000D0E002C0CC0FDD1F8A95E2F7C22BD32B93
:10212000DA685DCF8C2F8F710E947D11C82FD0E0AF
:10213000DC2FCC27CC27DF71D06251CF8C2F8F7151
:102140000E947D1155E0D695C7955A95E1F7CF705D
:10215000D0E0DC2FCC27282F30E084FF05C044E0FE
:10216000220F331F4A95E1F7C22BD32BD06937CF0B
:102170008D2F8F710E947D11182FCE0199270E94FB
:10218000DB10C12FD0E0DC2FCC27CC27DF71C82B90
:10219000D92BD2CF462F743030F46B3020F4672F18
:1021A0000E947F03089590E080E008950E94CA1085
:1021B0000E94AC0F089582389105B9F1B0F48133D3
:1021C000910509F47DC048F48932910509F46DC088
:1021D0008A32910509F47BC008958533910509F48D
:1021E0005FC08933910509F10895833E9105D9F1C6
:1021F00038F4803E910529F1823E910579F10895E8
:10220000863E9105D9F1873E910509F43EC0843E92
:10221000910541F52091EC0221FF24C08091EB0251
:1022200084FD19C087EE90E008952091EB022370A1
:1022300009F05AC02091EC0223FF14C089E290E01B
:1022400008952091EB0220FD38C03091EC0230FF60
:1022500009C024FF43C090E080E008952091EB0284
:1022600022FDF7CF08952091EB0222FD3AC0309174
:10227000EC0230FD39C024FFF5CFEDCF2091EB0209
:1022800023FFF0CF24FDE7CFCDCF2091EB0223FD3C
:102290002EC03091EC0231FFEECF84EE90E0089535
:1022A0002091EB0225FFDECFC9CF2091EB0225FD67
:1022B00021C02091EC0223FFD5CF89E390E0D2CF5B
:1022C0002091EB0226FFCECF8AE290E00895209184
:1022D000EB0226FFC7CF81E390E0089583EE90E004
:1022E000089582EE90E0089580EE90E0089586EEE5
:1022F00090E0089585E390E008959091EB0292FFBD
:1023000010C041E0282F2471243009F040E031E072
:10231000282F2871283009F030E0431711F02CE005
:10232000822793FF10C041E0282F2471243109F047
:1023300040E031E0282F2871283109F030E04317C0
:1023400011F02CE082273091EC0230FF10C051E0F8
:10235000282F2171213009F050E041E0282F287109
:10236000283009F040E0541711F029E0822731FFAE
:1023700010C041E0282F2171213109F040E031E007
:10238000282F2871283109F030E0431711F029E097
:10239000822794FD877E089580E00895CF939C0165
:1023A000205E3245C1E02032310538F4FB01C581A1
:1023B000C11103C08F710E94ED038C2FCF9108953E
:1023C00008950E94E011089508950E94E41108956F
:1023D000E82FF0E0EE0FFF1FEB50FD4F8081918161
:1023E0000895089580EA8A95F1F7089500C0089548
:1023F0000E94F2110895F894E82FE295EF70F0E052
:1024000031A1282F2F7081E090E001C0880F2A951C
:10241000EAF7982F9095932391A392A1892B82A3F9
:1024200078940895CF93DF9387EF0E94FB1181E3A7
:102430000E94FB1184E90E94FB1180E90E94FB11BC
:10244000CBE9D1E089918F3F11F00E94FB1181E02F
:10245000C63AD807B9F7DF91CF910895AF92BF92EE
:10246000DF92EF92FF920F931F93CF93DF938C0134
:10247000D62EC62FD0E0CE018A559E4F7C01FC019E
:1024800020812F3F09F44DC0F894E22FE295EF70C0
:10249000F0E031A12F7081E090E001C0880F2A9513
:1024A000EAF7932F982B91A392A18095892382A379
:1024B00078940E94F611EBE9F1E046EA51E021E060
:1024C00030E0B12CA12C61916F3FA9F1A62FA2950C
:1024D000AF70B0E090968C9190E06F7002C09595CF
:1024E00087956A95E2F780FD26C0C901A82AB92A16
:1024F000220F331F4E175F0731F7F70180818F3F9F
:1025000011F00E94FB1161E0A114B10409F460E034
:102510008D2D0E94F811CC0FDD1FC00FD11FB98285
:10252000A882DF91CF911F910F91FF90EF90DF90E4
:10253000BF90AF90089590E080E0D8CF0E94121233
:1025400088E0E5EFF2E0DF01982F1D929A95E9F718
:10255000EDEEF2E0DF011D928A95E9F784E00E943A
:10256000EF120E94E1110895A8E0B0E0EAEBF2E179
:102570000C94C8268E010F5F1F4F88E0F80111925E
:102580008A95E9F7F12C6F2DC8010E942E12F39461
:10259000F4E0FF12F8CF48E050E0B8018DEE92E091
:1025A0000E94912721E0009709F420E0892B41F057
:1025B00088E0F801ADEEB2E001900D928A95E1F766
:1025C00044E065EF72E08DEE92E00E94F012182F69
:1025D0000E94E511812F2896E5E00C94E4260895E9
:1025E000B0E0A0E0E6EFF2E10C94C5266C017B01BF
:1025F000042FC22F222379F081E08093AD020E9444
:10260000321F9093AC028093AB0280E0CDB7DEB76F
:10261000E8E00C94E126D091AD02DD23B1F3809186
:10262000AB029091AC020E944A1F059770F310E034
:10263000000F111FA801B601C7010E949127892B25
:1026400031F0A801B601C7010E949E27CD2F10923C
:10265000AD028C2FDBCF0E94350F08950E94CB1E58
:102660000E94DC200E94F50E0E94F6200E94280F96
:102670000E9403210E9408210E942B130E94222104
:102680000E94080FF7CF9093DF018093DE01089539
:102690000F931F93CF938C01FB01C581CC2309F4C9
:1026A00047C00E94E60C8272F801E052F847EB3016
:1026B000F10538F4E45DF74D0C9484260E94DA1994
:1026C000C0E08C2FCF911F910F910895882329F09E
:1026D0000E94C819F5CF8823D9F30E94B819F0CF0A
:1026E000882329F00E944116EBCF8823D9F30E945A
:1026F0003216E6CF882329F00E946316E1CF8823A3
:10270000D9F30E945216DCCF882329F00E94851647
:10271000D7CF8823D9F30E947416D2CF882329F00B
:102720000E940A15CDCF8823D9F30E94EA14C8CF9E
:10273000C1E0C7CFEF92FF920F931F93CF93DF9328
:102740009B01682F31110EC0442329F0E82FF0E0DF
:10275000EA5DFC4F6491762F862FCDB7DEB7E6E0B9
:102760000C94E326C32FD0E0E82FF0E0442321F0BF
:10277000EA5DFC4FE491F0E046E0249FC0011124A3
:102780000FEF10E0B8010E943A26AB01822F90E0D3
:10279000880F991F25E5249FB001259F700D1124F6
:1027A000861B970B982F990F980FB8016C1B7D0B08
:1027B0006E9FD0016F9FB00D7E9FB00D11248B2FA7
:1027C000939F90011124232F3327B801621B730BB1
:1027D0006E9F90016F9F300D7E9F300D1124780108
:1027E000E91AF108EC9EB001ED9E700DFC9E700D93
:1027F0001124672F7727061B170B0E9FE0010F9FF1
:10280000D00D1E9FD00D11247D2F9E2F42305105DB
:1028100099F048F44115510569F04130510581F0B6
:102820007B2F832F07C04430510569F080F046307C
:102830005105B1F7692F91CF9B2F8D2F7E2FFACFA6
:102840007E2F932FF7CF9D2F7B2F8E2FF3CF732FBC
:102850009B2FFBCF41E00E949A13089508950E9498
:102860002A14089590910B01291B922FE091D70112
:10287000F091D801242F462F682F892F90E00995D9
:102880000895CF93DF93762FE901682F842F0E945C
:102890002F14962F672F9E01482F892F0E943214E4
:1028A000DF91CF9108958091FD02982F9C7F29F4AC
:1028B000837084608093FD0208958C3AE8F38370FE
:1028C000886AF8CFB0E0A0E0E8E6F4E10C94C52611
:1028D00088E090E00E94AF276B017C0183E290E0EA
:1028E0000E94A727282F30E040E050E060E070E031
:1028F00080E090E000E20E94F226B22FA32FF42F96
:10290000E52FD62FC72F97018601BC29A12BFE29C1
:102910005E2F532B2B2F3A2F4F2F6D2F7C2FCDB7A0
:10292000DEB7E8E00C94E126B0E0A0E0EAE9F4E1EB
:102930000C94C12649015A016B017C010E94531479
:102940008401A4016A2D7B2D88E090E00E94DD27A0
:1029500094014A2D5B2DB601C70100E20E940D27AC
:10296000622F83E290E00E94CB27CDB7DEB7ECE088
:102970000C94DD26EDEFF2E085E0808311828FEF8D
:10298000828383831482758125E030E04FEF5FEF0F
:1029900060E0868197810E949414089590910103CC
:1029A000933018F49F5F90930103882391F0209156
:1029B000FD023091FE024091FF02509100036091B0
:1029C00001037091020380910303909104030E941C
:1029D0009414089581E00E94CE140895909101030B
:1029E000992319F0915090930103882391F020913D
:1029F000FD023091FE024091FF0250910003609170
:102A000001037091020380910303909104030E94DB
:102A10009414089581E00E94EE1408950F931F937B
:102A2000CF938091FD0280FF09C0E091DB01F0911E
:102A3000DC010995CF911F910F910895C0910D016F
:102A40000091D7011091D80180910E01C81768F745
:102A500080910B019C2F981B892F20E040E060E0C3
:102A600090E0F8010995CF5FEFCFEF92FF920F93BF
:102A70001F93CF93DF93D82F162F042F8091FD0241
:102A800080FF0CC0C0910D01E090D701F090D801FB
:102A900080910E01C81738F00E940E15CDB7DEB731
:102AA000E6E00C94E32680910B019C2F981B892F64
:102AB000202F412F6D2F90E0F7010995CF5FE8CFD0
:102AC000762F9091FD0290FF0AC0682F842F0E94FC
:102AD0002A14962F672F482F892F0E9435150895A5
:102AE000CF93DF93EC01EC81F0E0EF5DFD4F44917B
:102AF000EDEFF2E0628181810E9460158C818F5F31
:102B00008C83DF91CF910895CF93DF93EC01EDEFAC
:102B1000F2E0438162818C810E9460158C818F5F1D
:102B20008C83DF91CF910895CF93DF93EC01409197
:102B300000039C81892F817090FD842F692F627022
:102B400091FD642F92FF40E00E9435158C8190E04A
:102B50000196877099278C83DF91CF910895B0E01B
:102B6000A0E0E5EBF5E10C94C626D82FF62E142F45
:102B7000E22E9091FD0290FF2FC0E92FE695E69599
:102B8000AE2FB0E0A655BE4F8C918093D2029C7FB1
:102B9000943039F56D2F7F2D842F0E942A14962FA3
:102BA000672F482F892F0E943515D093FE02F0928F
:102BB000FF0210930003EE2079F02091FD02609156
:102BC0000103709102033D2F4F2D512F809103037C
:102BD000909104030E949414CDB7DEB7E7E00C9403
:102BE000E226823019F410910003DFCF863019F409
:102BF000D091FE02DACF8930D9F38931B1F6E951AB
:102C00008E2F8170D82EE695F0E0EF5DFC4FC491D9
:102C100000E060910F01061718F00E940E15C5CF55
:102C20000C9FC001112470E00E943A268D2FD11014
:102C30000CC0860F20910D01200F3327331F412F29
:102C40006F2D0E9441140F5FE4CF861BF3CFEDEF91
:102C5000F2E09181282F438162818AE0890F0E94EE
:102C6000AF15089581E00E9427160895EDEFF2E078
:102C70009181282F4381628186EF890F0E94AF15D1
:102C8000089581E00E9436160895EDEFF2E062812A
:102C900021E1620F08F46FEF282F438181810E94A8
:102CA000AF15089581E00E9445160895EDEFF2E01A
:102CB000628121E1621B08F460E0282F4381818159
:102CC0000E94AF15089581E00E9456160895EDEF19
:102CD000F2E0438121E1420F08F44FEF282F628197
:102CE00081810E94AF15089581E00E9467160895C2
:102CF000EDEFF2E0438121E1421B08F440E0282F90
:102D0000628181810E94AF15089581E00E9478164A
:102D1000089521E00E94AF15089520E00E94AF15AC
:102D20000895EF92FF921F93CF93DF93EC0110E091
:102D3000EE24EA94F12C60910F01161770F00E94B6
:102D40000E159A818C8190FF1EC08F5F8C83DF915E
:102D5000CF911F91FF90EF90089520910D01210FC9
:102D60003327331F70E0C7010E944E26962F8C81B7
:102D7000409100036091FF02199F800D11240E9471
:102D800041141F5FD8CF8150E1CFB0E0A0E0EBEC61
:102D9000F6E10C94C326FC018281DFEF80FFD1E0D5
:102DA000C0E00091D7011091D80125E0A22E8091BA
:102DB0000F01C81798F00E940E158091AF02D13014
:102DC00009F050C0811102C080910F0181508093A1
:102DD000AF02CDB7DEB7EAE00C94DF2680910D019B
:102DE00090910B01891B8C0F20E040E060E090E0A7
:102DF000F801099594E0E92EF12CB12CCC2ED12CC0
:102E00008091AF028B0D86303CF16A2D0E942C26FA
:102E1000892F082E000C990BC816D906B1F4209101
:102E20000D012C0D3D2D311D809100038E9DA001C3
:102E30008F9D500D11245595479555954795609157
:102E4000FF028091FE020E944114BD0EF1E0EF1AD4
:102E5000F108B1F6CF5FABCF87FFDBCF90910F01C9
:102E6000890FD7CF90E0019660910F0170E00E942A
:102E70004E26ADCF0F931F93CF93C0910D010091BC
:102E8000D7011091D80180910E01C81750F1C0E010
:102E90000091D7011091D80160910F01C61770F110
:102EA0000E940E15209109018091AE02820F80933D
:102EB000AE0290910A01920F90930A01191654F4F0
:102EC000082E000C990B40910F014150550B8417AF
:102ED00095071CF0219520930901CF911F910F9127
:102EE000089580910B019C2F981B892F20E040E0D2
:102EF00060E090E0F8010995CF5FC5CFEC2FF0E0DE
:102F000070E0CF010E944E2620910D01820F20918A
:102F1000AE02022E000C330BE217F307A4F020914F
:102F20000A01022E000C330B2E173F0764F0282FE6
:102F300030E0409100036091FF028091FE020E9408
:102F40004114CF5FA9CF90910B01891B20E040E095
:102F500060E090E0F8010995F4CFB0E0A0E0E3EB89
:102F6000F7E10C94C126EC014C81042F10E098018C
:102F7000D8010E9492269B01AC010E94A8264B0119
:102F80005C01E0E2F0E0E01BF10BA5E5B0E0AC0194
:102F90009B010E94A8266B017C019F01DF010E941A
:102FA0008A269B01AC010E94B3269B01AC01280D2F
:102FB000391D4A1D5B1DC701B6010E946226F22E13
:102FC000822F90E039E23F1520F143E0249F9001E9
:102FD000112435952795122F109500E085E5E82EF0
:102FE000EF1880910F01081720F10E940E159C81A7
:102FF00081E0992319F0903219F48FEF8093080142
:1030000080910801890F8C83CDB7DEB7ECE00C947A
:10301000DD2625E530E0A901481B590BCA019A01BC
:10302000220F331F280F391F37FFD3CF2F5F3F4F9A
:10303000D0CF8E2D01FD8F2D20910D01200F332734
:10304000331F412F6091FF020E9441140F5FC9CFCF
:103050000F931F93CF93DF938C01D0E0C0E090914A
:103060000F019C171D0609F074F40E940E15F8015B
:10307000848190E00196817099278483DF91CF91BC
:103080001F910F910895F801448120910D012C0F9B
:103090003D2F311D6091FF028091FE0296959C1795
:1030A0001D0649F044F0442341F0409100030E9482
:1030B00041142196D4CF4423C1F340E0F8CFB0E0CF
:1030C000A0E0E5E6F8E10C94BD26FC0162804480B6
:1030D00081E08483E1E2F2E07490E0EAF2E0E491DE
:1030E000C0910003C695C158D0E0CC0FDD1FCD2F95
:1030F000DD27812C25E0922EAA24AA94B12C5524F8
:103100005A94E719EE2EF12C80910F01881638F0B1
:103110000E940E15CDB7DEB7E0E10C94D926C82C7D
:10312000D12C82E0861568F09C9CF0019D9CF00DEE
:103130001124E055FD4F8091FE0280838091FF02B3
:10314000818341101CC09C9CF0019D9CF00D1124BA
:10315000E055FD4F1382128220910D012C0D3D2D63
:10316000311D9C9CF0019D9CF00D1124E055FD4FFC
:103170004281618180810E9441148394C5CF9C9CCF
:1031800080019D9C100D112400551D4FF801838175
:103190008823F1F081508383859DC00111246481CF
:1031A00070E00E943A26FB01FF27EF5DFD4F8491FE
:1031B000E82FE719E59DC0011124B7010E943A26C6
:1031C00080910003689FB0011124F8017283C4CF7D
:1031D0000E947427B5010E944E268C179D070CF0A3
:1031E000BBCFF2E0F61598F40E947427B5010E9457
:1031F0004E26F80180830E9474272091FF022695B5
:10320000622F70E00E944E26280FF80121839C9CBB
:10321000F0019D9CF00D1124E055FD4F128280912C
:103220000003893C58F088EC9C9CF0019D9CF00DBB
:103230001124E055FD4F848383838ECF8431A0F722
:1032400084E1F2CFEDEFF2E020812E7F2083318107
:103250004281538164817581868197810E94941493
:103260001092D3020E940E150895EDEFF2E08081D6
:103270008E7F80831092D3020E940E1508951092C3
:10328000D3028091D00281110AC081E08093D002E4
:103290008091FD0281708093CF020E9435190895BC
:1032A0006091FD026695669570E04BE050E080E12C
:1032B00091E00E948427892B19F481E08093D30246
:1032C0000E94321F9093CA028093C9020895909180
:1032D000FD0290FF34C09370811132C094609093CE
:1032E000FD02662391F02091FD023091FE02409193
:1032F000FF025091000360910103709102038091DD
:103300000303909104030E9494146091FD0266955A
:10331000669570E04BE050E080E191E00E948427E8
:10332000892BB1F01092D30281E08093CC024091BE
:1033300000036091FF028091FE020E948D160895A5
:103340008B3210F0986ACBCF880F880F982BC7CF9D
:103350000E945019E9CF682F9091FD02969596959D
:1033600081E0890F8B3208F081E00E94671908958F
:1033700081E00E94AB190895682F9091FD02969507
:1033800096958FEF890F09F48AE20E9467190895D4
:1033900081E00E94BC19089561E00E9467190895B8
:1033A000EDEFF2E0808181608083869586950E94B2
:1033B000CC1908958091FD0280FF03C00E9422195C
:1033C00008950E94D019089560E00E946719089539
:1033D0008091D10281113CC00E9462142093FD02B1
:1033E0003093FE024093FF02509300036093010369
:1033F0007093020380930303909304032C7FA1F442
:103400000E94BA140E9462142093FD023093FE02BF
:103410004093FF02509300036093010370930203F3
:1034200080930303909304030E9453141092D302D9
:10343000E091D501F091D60109958091FD0280FFC0
:1034400004C0869586950E94E41981E08093D1029C
:103450000895EDEFF2E08081816080838695869506
:103460000E94E41908951092D0028091CF02811138
:103470000E94291A0E94501908950F931F93CF9309
:10348000DF938091D3028823C1F18091D202E09131
:10349000FD02E695E695E81BE093CB02823091F5BC
:1034A000F0E0E35EFD4FE491CE2FD0E000E715E1C0
:1034B0008091CC02882361F01092CC020E94321FCE
:1034C0009093CA028093C9021092CE021092CD024C
:1034D0000E94321FE091C902F091CA028E1B9F0B1D
:1034E0008F3F9F4750F4EC0FFD1FF093CA02E0930B
:1034F000C90289EC92E0F8010995DF91CF911F9103
:103500000F910895863049F4F0E0E65EFD4FE491B6
:10351000CE2FD0E004E815E1CBCF893051F4E69509
:10352000F0E0E95EFD4FE491CE2FD0E001E916E135
:10353000BFCF8F3051F4E695F0E0EC5EFD4FE491A3
:10354000CE2FD0E005EC16E1B3CF853149F4F0E0A1
:10355000EF5EFD4FE491CE2FD0E00AE317E1A8CF54
:10356000C8E2D0E00DEA17E1883109F4A1CF833237
:1035700039F4EFE0F2E0C591D49104E915E198CF78
:10358000C4EFD1E008E218E1843209F491CFC0ED34
:10359000D7E00EE214E1853209F08ACF8E2F63E086
:1035A0000E942026E92FF0E0E45FFD4FE491CE2F4A
:1035B000D0E00FE518E17CCF08950E943D1A0895F0
:1035C000519A0895FC01EE0FFF1FE80FF91FEB5F02
:1035D000FC4F6183408322830895E5E0F3E081831B
:1035E00060834283339693E0E431F907C1F708958D
:1035F0003BB13D7F2BB122604FB7F89485E093E05B
:10360000FC015191CF0168E02BB9000000C057FFC9
:103610003BB9550F000000C000C000C03BB900C05E
:103620006A9591F7F3E084319F0751F74FBF8FE51B
:1036300094E00197F1F700C000000895CF93DF9365
:10364000EB0186319C4711F50E94E60C9D81992380
:1036500099F08A7A91E009F490E09093D402811174
:1036600009C089E20E94F21D0E949A0D80E0DF915C
:10367000CF91089585E3F6CF8091D402811104C0E3
:1036800089E20E940C1EF0CF85E3FBCF81E0EFCFF3
:10369000CF93DF93EC01FB018581882309F4D2C02D
:1036A0009E0130572332310508F0B2C00E942B0E24
:1036B0009093EC028093EB02FE01E150F047E2327E
:1036C000F10520F4E95CF74D0C9484268091EB021F
:1036D00081608093EB0293C08091EC0288608093BC
:1036E000EC028DC08091EB028260F3CF8091EB02FF
:1036F0008460EFCF8091EB028860EBCF8091EC0289
:103700008160EDCF8091EC028260E9CF8091EB0285
:103710008061DFCF8091EB028062DBCF8091EB0292
:103720008064D7CF0E946D088091EB028068D1CF72
:103730008091EB028C60CDCF8091EC028360CFCF83
:103740008091EB028E7FC5CF8091EC02877FC7CF3F
:103750008091EB028D7FBDCF8091EB028B7FB9CF43
:103760008091EB02877FB5CF8091EC028E7FB7CF3F
:103770008091EC028D7FB3CF8091EB028F7EA9CF39
:103780008091EB028F7DA5CF8091EB028F7BA1CF43
:103790000E946D088091EB028F779BCF8091EB02A6
:1037A000837F97CF8091EC028C7F99CF8091EB0241
:1037B00082FB992790F921E0922790FB82F990FBF8
:1037C00083F987CF8091EC02982F909591708E7F2E
:1037D000892B90FB81F983CF9091EB02892F8F7B0E
:1037E00096FF806476CF0E946D089091EB02892F3E
:1037F00097FB87F980586DCF81E00E94B00E8091D1
:10380000EB029091EC020E94300E0E946D0880E065
:10381000DF91CF91089580E0F0CF9091EB02892F56
:103820008F7E94FF806155CF9091EB02892F8E7F20
:1038300090FF81604ECF9091EC02892F877F93FF9C
:1038400088604DCF81E0E4CF0F931F93CF93DF9338
:10385000C42FD22FFC0185818823C9F04093D70261
:103860000E94321F9093D6028093D50280E28C0F83
:10387000883040F4C77081E001C0880FCA95EAF72C
:103880000E942306DF91CF911F910F91089510910F
:10389000D702141332C08091D5029091D6020E94B3
:1038A0004A1F8639910548F5C0E2CD0F1D17B9F0C2
:1038B00080E2810F883040F4177081E001C0880FEA
:1038C0001A95EAF70E942A06C83048F481E09D2F35
:1038D000977001C0880F9A95EAF70E942306802FFF
:1038E0000E941A06C83070F6D77081E001C0880FB8
:1038F000DA95EAF70E942A06C5CF80E28C0F88305D
:1039000008F6C77081E001C0880FCA95EAF7F2CFC8
:103910000F93DB0188519C4787309105A0F5FC018E
:10392000E75AF74D0C94842606E221EE41EE6AE157
:103930007CE7CD010E94241C80E00F91089507E2EE
:1039400025EE45EE6BE17CE7F4CF06E221EE40EE9A
:1039500068E17CE7EECF07E225EE44EE69E17CE723
:10396000E8CF06E221EE42EE6CE17CE7E2CF07E22F
:1039700025EE46EE6DE17CE7DCCF08E221E045EE86
:103980006EE17CE7D6CF15968C91882319F01092C2
:10399000D702D3CF81E0D1CF9093DD028093DC02B8
:1039A0000895E091DC02F091DD02309729F001905A
:1039B000F081E02D0995089580E008950E94D11CC2
:1039C0000895E091DC02F091DD02309721F0028051
:1039D000F381E02D09950895E091DC02F091DD027C
:1039E000309739F026E0DC012C930480F581E02D3E
:1039F00009950895A3E0B0E0E0E0FDE10C94CB264A
:103A00002091DA023091DB0228173907A1F0909358
:103A1000DB028093DA02E091DC02F091DD02309764
:103A200051F023E029839B838A830084F185E02D74
:103A3000CE01019609952396E2E00C94E726A3E0D7
:103A4000B0E0E5E2FDE10C94CB262091D802309164
:103A5000D90228173907A1F09093D9028093D80290
:103A6000E091DC02F091DD02309751F024E02983EF
:103A70009B838A830084F185E02DCE010196099510
:103A80002396E2E00C94E726CF93DF93C0910601E2
:103A9000D091070122960E94891E813081F4809185
:103AA000EB0287FF0CC0C0910401D0910501229662
:103AB0009EE180E0915028F4DF91CF91089596E047
:103AC000F8CF29912223B1F38F5FF4CFCF93C82F82
:103AD000811102C080E024C00E94891E813011F54E
:103AE0008091EB0287FF1EC0EC2FE695E695E695E8
:103AF000EE3180F78091040190910501E80FF92FD4
:103B0000F11D228130E0C77081E090E002C0880F93
:103B1000991FCA95E2F72823392381E0232BD1F29C
:103B2000CF9108958091060190910701FC01329692
:103B3000089621912C1721F0E817F907D1F7CACF81
:103B400081E0EECF9C01FC0132969FEF80E0419135
:103B5000461751F09F3F19F4411101C0982F8F5F14
:103B60008630A9F79F3F09F40895290F311D97FD6D
:103B70003A95F90162830895FC01329608962191E5
:103B8000261303C0DF0111971C92E817F907B9F754
:103B90000895E62FE695E695E695EE3168F4E80F90
:103BA000F92FF11D677021E030E001C0220F6A9506
:103BB000EAF78281822B82830895E62FE695E695C7
:103BC000E695EE3170F4E80FF92FF11D677021E0F2
:103BD00030E001C0220F6A95EAF720958281282300
:103BE00022830895CF93C82F0E94891E6C2F8130A5
:103BF00061F48091EB0287FF08C0809104019091ED
:103C000005010E94C91DCF910895809106019091F0
:103C100007010E94A21DF7CFCF93C82F0E94891ED3
:103C20006C2F813061F48091EB0287FF08C0809196
:103C30000401909105010E94DD1DCF9108958091AE
:103C40000601909107010E94BC1DF7CF0E94891EBA
:103C5000813079F48091EB0287FF0BC0E091040181
:103C6000F091050132968EE1DF011D928A95E9F708
:103C70000895E0910601F0910701329686E0F4CFB5
:103C800008950E94401E089581110EC081E0809326
:103C90001E0160911B0170911C0180911D0190918A
:103CA0001E010E94411E089582E0F1CF83E08093BF
:103CB0001E0160911B0170911C0180911D0190916A
:103CC0001E010E94411E08950E94441E089581E035
:103CD00080931E0160911B0170911C0180911D0158
:103CE00090911E010E94411E08950E94671E089532
:103CF00091E0811101C090E090931D0160911B0142
:103D000070911C0180911D0190911E010E94411E25
:103D1000089580911D01089580931C0160911B01FD
:103D200070911C0180911D0190911E010E94411E05
:103D3000089580911C01089580931B0160911B01DF
:103D400070911C0180911D0190911E010E94411EE5
:103D5000089580911B010895089508950E94AD1E55
:103D60000895089508950E94AC1E0895CF930E946F
:103D7000B11E0E94B4120E94B21EC0E08C2F0E949D
:103D8000E811892B31F4CF5FC430C1F780E0CF91C7
:103D9000089581E0FCCF85B7806885BF85B78068CE
:103DA00085BF08951F921FB61F9211248F939F9372
:103DB000AF93BF938091DE02811113C080911403F1
:103DC00090911503A0911603B09117034196A11D80
:103DD000B11D8093140390931503A0931603B09321
:103DE0001703BF91AF919F918F911F901FBE1F909E
:103DF000189580911C03843031F10E94890410923F
:103E0000DE0288E190E020E40FB6F894A895809354
:103E100060000FBE2093600083B7817F846083BF02
:103E200083B7816083BF7894889583B78E7F83BF83
:103E30000FB6F894A8958091600088618093600027
:103E4000109260000FBE08950E946D080E949004B9
:103E5000089582E084BD93E095BD9AEF97BD80936D
:103E60006E0008952FB7F894809114039091150374
:103E7000A0911603B09117032FBF08952FB7F894A0
:103E800060911403709115038091160390911703AC
:103E90002FBF08959C014FB7F8948091140390911F
:103EA0001503A0911603B09117034FBF821B930B0C
:103EB000089578941F921FB61F9211248F939F9399
:103EC000AF93BF938091140390911503A0911603B3
:103ED000B09117030196A11DB11D80931403909317
:103EE0001503A0931603B0931703BF91AF919F9151
:103EF0008F911F901FBE1F90189587E797E79093AB
:103F000001088093000888E19AE00FB6F894A8951C
:103F1000809360000FBE90936000FFCF88E19AE02D
:103F20000FB6F894A895809360000FBE9093600040
:103F3000FFCF08959B01BA0190911C039430E9F4DE
:103F40008F708093E9009FEF8091E800915085FD8C
:103F500006C085ED8A95F1F700009111F5CF8091AB
:103F6000E80085FF0AC050E040E0C9010E949921A5
:103F70008091E8008E778093E800089543E050E058
:103F8000BC0182E00E949A1F089540E250E0BC010B
:103F900082E00E949A1F0895CF93DF93EC010E9464
:103FA000891E48E050E0BE0181E00E949A1F88E02F
:103FB000FE01AFEDB2E001900D928A95E1F7DF913D
:103FC000CF91089580911B03811109C00E9429237C
:103FD0000E9486238091E20084608093E20008952D
:103FE00010921B0308950E94671E81E00E94781EB4
:103FF00008956091180381E0611101C080E00E9482
:10400000561E089590911C0381E0943009F080E0E1
:10401000609118030E94641E089542E061EC81E003
:104020000E94A52242E261EC82E00E94A5229091CA
:104030001C0381E0943009F080E0609118030E9435
:10404000441E089580911E03833009F461C030F44A
:104050008130D1F1823009F49EC008958A3009F48C
:104060008AC08B3009F46FC0893009F050C080914C
:104070001D03813209F04BC08091210390912203EE
:10408000029708F044C08091E800877F8093E800A1
:104090008091E80082FF37C09091F3008091F20098
:1040A000029731F48091F100813011F0863021F4D3
:1040B0008091F1000E948C1E8091E8008B778093A4
:1040C000E8000E94D92223C080911D03813AF9F4AF
:1040D0008091E800877F8093E80080912103909190
:1040E0002203892B61F468E08FED92E070E00E947A
:1040F000E8218091E8008B778093E800089560E0E4
:1041000090E080E0F3CF80911C038111C1CF08952E
:1041100080911D03813AD9F7809121039091220368
:10412000892BA9F78091E800877F8093E800809130
:10413000E80080FFFCCF0E94891E8093F1008091EF
:10414000E8008E77BCCF80911D03813201F780910A
:10415000210390912203892BD1F68091E800877F7B
:104160008093E8000E94D92280911F030E94781E4C
:104170000E946D08089580911D03813241F680915F
:10418000E800877F8093E8000E94D9228091200375
:104190000E949C1E089580911D03813A09F0B7CFBB
:1041A0008091E800877F8093E8008091E80080FF9D
:1041B000FCCF0E94A91EC1CF84B7877F84BF0FB6F2
:1041C000F894A895809160008861809360001092B7
:1041D00060000FBE80E890E00FB6F8948093610015
:1041E000909361000FBE0E94751E08950E942923BE
:1041F0000E948623E2EEF0E08081846080837894E0
:104200000E94052608958FE191E00E94CC1C08953C
:1042100080911C03853031F480911C03853019F0A6
:104220000E94241F08950E94F91E0E94B61E882332
:1042300099F380911A03882379F30E9483210E94C5
:104240006D08EACF08959A01409123035091240309
:104250000E942B210895492F55274330510519F10C
:1042600068F44130510509F444C04230510509F465
:1042700045C090E080E050E040E025C0413251056B
:1042800049F142325105A9F784E490E040E055E05D
:1042900061157105C1F08DE690E043E954E06130AD
:1042A000710589F0E6CF99278130910581F000975B
:1042B00029F00297F1F6E6E2F4E002C0E2E4F4E06D
:1042C000849190E0AF01F901518340830895E6E3C2
:1042D000F4E0F6CF89E090E048E554E0611571051F
:1042E00091F389E090E041E754E06130710559F3C2
:1042F000C0CF82E190E041E854E0E5CF8BE390E06D
:1043000046E454E0E0CF80E189BD82E189BD09B493
:1043100000FEFDCF8091D8008F7D8093D8008091E2
:10432000E00082608093E0008091E00081FDFCCF9E
:104330000895AF92BF92CF92DF92FF920F931F9397
:10434000CF93DF936C01EB018A010E94F822F82ED3
:10435000811123C00115110539F0F8018081918187
:10436000C81BD90BC80ED91EB12CA12C2097A9F0BF
:104370008091E80085FD22C08091E8008E778093CF
:10438000E80001151105A1F0F80180819181A80EC6
:10439000B91EB182A08285E0F82E8F2DDF91CF91DA
:1043A0001F910F91FF90DF90CF90BF90AF90089535
:1043B0000E94F8228823D1F2F82EEFCFF6018191E6
:1043C0006F018093F1002197FFEFAF1ABF0ACECFA4
:1043D000FC01809123039091240386179707A0F096
:1043E0006115710529F49091E8009E779093E8009B
:1043F00090E06115710551F4911108C08091E800B9
:1044000082FF34C080E00895BC01F2CF80911C038C
:104410008823C1F18530C1F18091E80083FD30C06F
:104420008091E80082FDEACF8091E80080FFE1CF33
:104430008091F3002091F200382F6115710519F079
:104440002830310558F091E02830310509F090E02E
:104450002091E8002E772093E800CBCF81918093C4
:10446000F100615071092F5F3F4FE7CF80911C032E
:10447000882341F0853041F08091E80083FFBECF72
:1044800081E0089582E0089583E00895FC01809121
:1044900023039091240386179707A0F061157105F7
:1044A00029F48091E8008E778093E80090E0611510
:1044B000710551F4911108C08091E80082FF35C068
:1044C00080E00895BC01F2CF80911C038823C9F1DC
:1044D0008530C9F18091E80083FD31C08091E8000A
:1044E00082FDEACF8091E80080FFE1CF8091F30068
:1044F0002091F200382F6115710519F0283031052F
:1045000058F091E02830310509F090E08091E80002
:104510008E778093E800CBCF84918093F100319621
:10452000615071092F5F3F4FE6CF80911C038823B4
:1045300041F0853041F08091E80083FFBDCF81E0FC
:10454000089582E0089583E00895982F973028F029
:104550008F708093E90081E008959093E900242F03
:10456000762F50E0981731F07091EC002091ED001B
:104570005091F00021FD02C09F5FE8CF3091EB0029
:104580003E7F3093EB003091ED003D7F3093ED00A6
:104590003091EB0031603093EB007093EC0020938E
:1045A000ED005093F0002091EE0027FDE5CF80E074
:1045B000089580911D0387FF13C08091E80082FF5A
:1045C00006C08091E8008B778093E80004C080915A
:1045D0001C038111F2CF089580911C038823D9F325
:1045E0008091E80080FFF8CF8091E8008E77ECCFD3
:1045F0002091E4003091E50095E6A9012091EC00BE
:10460000822F817020FF06C08091E80080FF06C0E5
:1046100080E008952091E80022FD1AC080911C03DB
:10462000882389F0853089F08091EB0085FD0FC0EB
:104630002091E4003091E50042175307F9F29150C0
:10464000E1F684E0089582E0089583E0089581E032
:1046500008950E9498230E94A023E0EEF0E080815C
:1046600081608083E8EDF0E080818F77808319BCE2
:10467000A7EDB0E08C918E7F8C9380818F7E8083BC
:1046800010921B0308950F931F93CF93DF930E9403
:1046900098230E94A023C8EDD0E088818F7788837B
:1046A00088818068888388818F7D888319BC109277
:1046B0001C031092180310921A031092190300EEB3
:1046C00010E0F80180818B7F8083888181608883FE
:1046D00042E060E080E00E94A522E1EEF0E080810F
:1046E0008E7F8083E2EEF0E0808181608083808134
:1046F00088608083F80180818E7F808388818061DB
:104700008883DF91CF911F910F910895E8EDF0E03C
:1047100080818F7E8083E7EDF0E0808181608083FF
:1047200084E082BF81E080931B030E9443230895AD
:10473000E8EDF0E080818E7F80831092E2000895A2
:104740001092DA001092E10008951F920F920FB6B6
:104750000F9211242F933F934F935F936F937F9307
:104760008F939F93AF93BF93EF93FF938091E1005B
:1047700082FF0BC08091E20082FF07C08091E100C0
:104780008B7F8093E1000E9404268091DA0080FFF5
:1047900019C08091D80080FF15C08091DA008E7F0B
:1047A0008093DA008091D90080FF96C080E189BDB6
:1047B00082E189BD09B400FEFDCF81E080931C0336
:1047C0000E94E21F8091E10080FF19C08091E20009
:1047D00080FF15C08091E2008E7F8093E20080917F
:1047E000E20080618093E2008091D8008062809333
:1047F000D80019BC85E080931C030E94F91F8091AA
:10480000E10084FF2BC08091E20084FF27C080E19B
:1048100089BD82E189BD89B5982F917080FFFBCF5A
:104820008091D8008F7D8093D8008091E1008F7EA9
:104830008093E1008091E2008F7E8093E20080917E
:10484000E20081608093E20080911803882309F4DC
:1048500049C084E080931C030E9402208091E10003
:1048600083FF29C08091E20083FF25C08091E10091
:10487000877F8093E10082E080931C0310921803ED
:104880008091E1008E7F8093E1008091E2008E7F35
:104890008093E2008091E20080618093E20042E038
:1048A00060E080E00E94A5228091F0008860809303
:1048B000F0000E94F31FFF91EF91BF91AF919F9184
:1048C0008F917F916F915F914F913F912F910F90B9
:1048D0000FBE0F901F90189519BC10921C030E94D8
:1048E000F01F70CF8091E30087FD93E090931C034D
:1048F000B3CF1F920F920FB60F9211242F933F93B5
:104900004F935F936F937F938F939F93AF93BF93D7
:10491000CF93DF93EF93FF93D091E900DF70809105
:10492000EC00C82FC17080FDC0E81092E9008091B2
:10493000F000877F8093F00078940E94BD2410924D
:10494000E9008091F00088608093F000CD2BCF705B
:10495000C093E900FF91EF91DF91CF91BF91AF91AB
:104960009F918F917F916F915F914F913F912F9187
:104970000F900FBE0F901F901895AAE2B0E0E3ECE5
:10498000F4E20C94CA268DE193E02091F100FC0141
:104990002193CF01F3E085329F07B9F70E942220CF
:1049A0008091E80083FF1EC180911D0390911E033A
:1049B0009A3008F017C1E92FF0E0E05AF74D0C9457
:1049C0008426803899F0823809F00CC18091210347
:1049D0008F70873008F006C18093E9008091EB006A
:1049E00085FB882780F91092E90006C080911903A1
:1049F00090911A03911182609091E800977F9093B3
:104A0000E8008093F1001092F1008091E8008E7729
:104A1000E5C0882309F4D3C0823009F0E3C0809157
:104A20001F038111D6C0809121038F702FEF280FB3
:104A3000263008F0D7C08093E9002091EB0020FFDA
:104A4000C8C0933031F48091EB0080628093EB001A
:104A5000C0C09091EB0090619093EB0021E030E0BA
:104A600001C0220F8A95EAF72093EA001092EA002B
:104A70008091EB008860EACF8111B4C010911F03D0
:104A80001F778091E3008078812B8093E3008091F1
:104A9000E800877F8093E8000E94D9228091E80097
:104AA00080FFFCCF8091E30080688093E30082E088
:104AB000111183E080931C0395C08058823008F068
:104AC00091C080911F03909120038C3D23E09207B9
:104AD000A1F583E08A838AE289834FB7F894DE01E7
:104AE000139620E03EE051E2E32FF0E050935700B0
:104AF000E49120FF03C0E295EF703F5FEF708E2FCF
:104B000090E0EA30C0F0C7968D939D932F5F2431DB
:104B100059F74FBF8091E800877F8093E8006AE2F1
:104B200070E0CE0101960E94E8218091E8008B7729
:104B30008093E80057C0C096E7CF60912103709141
:104B40002203AE014F5F5F4F0E942321BC01892BDE
:104B500009F448C09091E800977F9093E80089811C
:104B60009A810E944622E1CF8038E1F58091E800E9
:104B7000877F8093E800809118038093F10045CFF0
:104B8000811130C090911F03923060F58091E80050
:104B9000877F8093E800909318030E94D922809128
:104BA0001803882311F084E005C08091E30087FD9D
:104BB000FACF81E080931C030E940D2013C08091E6
:104BC0001F03813079F481E0933009F080E0809315
:104BD0001A031092E9008091E800877F8093E80033
:104BE0000E94D9228091E80083FF0AC08091E800EA
:104BF000877F8093E8008091EB0080628093EB00D8
:104C0000AA96E3E00C94E6260895CF9380911C03C6
:104C10008823A1F0C091E900CF709091EC00892F1A
:104C2000817090FD80E8C82B1092E9008091E80027
:104C300083FD0E94BD24CF70C093E900CF910895F9
:104C4000991B79E004C0991F961708F0961B881FDE
:104C50007A95C9F78095089587FB082E062687FD6B
:104C6000819567FD61950E9420260EF4919507FCC1
:104C700081950895AA1BBB1B51E107C0AA1FBB1F4A
:104C8000A617B70710F0A61BB70B881F991F5A95D8
:104C9000A9F780959095BC01CD01089597FB072E4B
:104CA00016F4009407D077FD09D00E943A2607FC3D
:104CB00005D03EF4909581959F4F0895709561952C
:104CC0007F4F0895A1E21A2EAA1BBB1BFD010DC048
:104CD000AA1FBB1FEE1FFF1FA217B307E407F507AC
:104CE00020F0A21BB30BE40BF50B661F771F881F88
:104CF000991F1A9469F760957095809590959B011E
:104D0000AC01BD01CF010895EE0FFF1F0590F49196
:104D1000E02D09940E949226332312F48A1B9B0BE8
:104D20000C94A326A29FB001B39FC001A39F700D56
:104D3000811D1124911DB29F700D811D1124911DA3
:104D400008950E949226B7FF0895821B930B089541
:104D50000E949226A59F900DB49F900DA49F800D58
:104D6000911D11240895B7FF0C94A8260E94A8262F
:104D7000821B930B08952F923F924F925F926F92F6
:104D80007F928F929F92AF92BF92CF92DF92EF92DB
:104D9000FF920F931F93CF93DF93CDB7DEB7CA1B5C
:104DA000DB0B0FB6F894DEBF0FBECDBF09942A8887
:104DB000398848885F846E847D848C849B84AA842F
:104DC000B984C884DF80EE80FD800C811B81AA81BC
:104DD000B981CE0FD11D0FB6F894DEBF0FBECDBF87
:104DE000ED010895002E083090F0982F872F762F30
:104DF000652F542F432F322F22270850F4CF220F34
:104E0000331F441F551F661F771F881F991F0A9560
:104E1000B2F7002D089597FD1094002E083098F0F9
:104E20000850232F342F452F562F672F782F892F87
:104E3000912DF4CF1594979587957795679557950C
:104E40004795379527950A95AAF71124002D0895BF
:104E50008F929F92AF92BF92CF92DF92EF92FF928A
:104E6000CF93DF93EC01688179818A819B81611501
:104E700071058105910521F464E279ED8BE597E0F8
:104E80002DE133EF41E050E00E94FF2749015A0134
:104E90009B01AC01A7EAB1E40E94A8266B017C014A
:104EA000ACEEB4EFA50194010E94B626DC01CB0163
:104EB0008C0D9D1DAE1DBF1DB7FF03C00197A1093D
:104EC000B04888839983AA83BB839F77DF91CF9172
:104ED000FF90EF90DF90CF90BF90AF909F908F901A
:104EE00008950E942827089580E091E00E942827D5
:104EF0000895B0E0A0E08093000190930101A09399
:104F00000201B09303010895FC014150504030F07C
:104F100001900616D1F73197CF0108958827992778
:104F20000895FB01DC0104C08D910190801921F4EA
:104F300041505040C8F7881B990B0895FB01DC01D4
:104F400002C001900D9241505040D8F70895F99950
:104F5000FECF92BD81BDF89A992780B50895A6E14C
:104F6000B0E044E050E00C94F127A8E1B0E042E06A
:104F700050E00C94F127DC01A40FB51F41505040C4
:104F800048F0CB01840F951F2E910E94CC274150F1
:104F90005040D0F70895262FF999FECF92BD81BDDC
:104FA000F89A019700B4021639F01FBA20BD0FB667
:104FB000F894FA9AF99A0FBE08950396272F0E9443
:104FC000CC270E94CB27252F0E94CC27242F0C947E
:104FD000CC270196272F0E94CC270C94CB27DC01ED
:104FE000CB01FC01F999FECF06C0F2BDE1BDF89AF4
:104FF000319600B40D9241505040B8F70895052EF7
:1050000097FB1EF400940E94162857FD07D00E94BB
:10501000622607FC03D04EF40C9416285095409558
:10502000309521953F4F4F4F5F4F08959095809554
:10503000709561957F4F8F4F9F4F0895F894FFCFE4
:1050400072067206C206C2062707A106A106A106BD
:105050004307B407C307C3075E1366136B137013CC
:1050600075137A137F13841389138E139313A01B64
:10507000141CA81B721B761BAC1B7A1BB01BBC1B21
:10508000861B0D1C8A1BC01B8E1BC41BEC1B921B9A
:10509000C81BF31B981BCE1BD61B7E1BB41B821B8D
:1050A000B81B9C1BD21BE21BFC1B0B1C6C1BA41B08
:1050B0001B1CA51CAB1C941C9F1CB11CB71CBD1C4D
:1050C000E1240925F2250925F2253C255D25F22557
:0450D000B425C0251E
:1050D400010000006E028E020101020005000505B8
:1050E40001191A1B1C1D1E1F2021220000010099FA
:1050F4001ECC1FC51F991FBE1FE200E900EA00B5C0
:1051040000B600B700CD008301CC008A019201945F
:10511400012102230224022502260227022A02B3C5
:1051240000B4006F0070009F01CB019F02A00281B8
:105134008283E200E900EA00B500B600B700CD00C2
:105144008301CC008A0192019401210223022402EA
:105154002502260227022A02B300B4006F00700061
:105164009F01CB019F02A002818283333236353402
:10517400C69766F4F5F6F731949000010202020234
:105184000606060909090909090F0F0F0F0F0F1564
:105194001515181919191919191919191923242563
:0E51A4002525252525E01AE21AED1AF81A0035
:00000001FF
